{
  "contractName": "DistanceHHS",
  "abi": [
    {
      "anonymous": false,
      "inputs": [
        {
          "indexed": false,
          "name": "distance",
          "type": "uint256"
        }
      ],
      "name": "DistanceHHSLog",
      "type": "event"
    },
    {
      "constant": false,
      "inputs": [
        {
          "name": "distance",
          "type": "uint256"
        }
      ],
      "name": "StoreDistanceHHS",
      "outputs": [],
      "payable": false,
      "stateMutability": "nonpayable",
      "type": "function"
    }
  ],
  "bytecode": "0x6080604052348015600f57600080fd5b5060be8061001e6000396000f3fe6080604052348015600f57600080fd5b506004361060285760003560e01c80630bcd07fe14602d575b600080fd5b605660048036036020811015604157600080fd5b81019080803590602001909291905050506058565b005b7f3fc9c413ae187dd1ef39f09e5c228240f43666938ce9159467d8545c0099effa816040518082815260200191505060405180910390a15056fea165627a7a72305820f68b9055fc47bde2398440726cdd0aad5f7c63ec7103668b0a9f2b5e7878cce90029",
  "source": "pragma solidity ^0.5.0;\r\n\r\ncontract DistanceHHS {\r\n   event DistanceHHSLog(uint256 distance)  ;   // declaring event  \r\n   function StoreDistanceHHS(uint256 distance) public {\r\n      emit DistanceHHSLog(distance);// logging event\r\n   }\r\n}\r\n",
  "sourcePath": "C:/blockchain_test/location/truffle/contracts/DistanceHHS.sol",
  "compiler": {
    "name": "solc",
    "version": "0.5.8+commit.23d335f2.Emscripten.clang"
  },
  "schemaVersion": "3.0.14",
  "updatedAt": "2019-09-03T12:53:38.957Z",
  "devdoc": {
    "methods": {}
  },
  "userdoc": {
    "methods": {}
  }
}