{
  "contractName": "DistanceHHS",
  "abi": [
    {
      "anonymous": false,
      "inputs": [
        {
          "indexed": false,
          "name": "distance",
          "type": "int256"
        }
      ],
      "name": "DistanceHHSLog",
      "type": "event"
    },
    {
      "constant": false,
      "inputs": [
        {
          "name": "distance",
          "type": "int256"
        }
      ],
      "name": "StoreDistanceHHS",
      "outputs": [],
      "payable": false,
      "stateMutability": "nonpayable",
      "type": "function"
    }
  ],
  "bytecode": "0x6080604052348015600f57600080fd5b5060be8061001e6000396000f3fe6080604052348015600f57600080fd5b506004361060285760003560e01c8063c4a896cd14602d575b600080fd5b605660048036036020811015604157600080fd5b81019080803590602001909291905050506058565b005b7f93f6f984976022368ed0b9ae0613191c23b50c1aa33e79e5bbd4cebddadbe092816040518082815260200191505060405180910390a15056fea165627a7a723058203dcc13a22c13b1a65713bf2500e07d38690554476c1fa4f14d5c7047e12e3fdb0029",
  "source": "pragma solidity ^0.5.0;\r\n\r\ncontract DistanceHHS {\r\n   event DistanceHHSLog(int256 distance)  ;   // declaring event  \r\n   function StoreDistanceHHS(int256 distance) public {\r\n      emit DistanceHHSLog(distance);// logging event\r\n   }\r\n}\r\n",
  "sourcePath": "C:/blockchain_test/location/truffle/contracts/DistanceHHS.sol",
  "compiler": {
    "name": "solc",
    "version": "0.5.8+commit.23d335f2.Emscripten.clang"
  },
  "schemaVersion": "3.0.14",
  "updatedAt": "2019-09-03T12:00:10.541Z",
  "devdoc": {
    "methods": {}
  },
  "userdoc": {
    "methods": {}
  }
}