{
  "contractName": "ProofOfLocation",
  "abi": [
    {
      "anonymous": false,
      "inputs": [
        {
          "indexed": false,
          "name": "adr",
          "type": "address"
        },
        {
          "indexed": false,
          "name": "lat",
          "type": "int256"
        },
        {
          "indexed": false,
          "name": "lon",
          "type": "int256"
        }
      ],
      "name": "ProofOfLocationLog",
      "type": "event"
    },
    {
      "constant": false,
      "inputs": [
        {
          "name": "lat",
          "type": "int256"
        },
        {
          "name": "lon",
          "type": "int256"
        }
      ],
      "name": "StoreProofOfLocation",
      "outputs": [],
      "payable": false,
      "stateMutability": "nonpayable",
      "type": "function"
    }
  ],
  "bytecode": "0x6080604052348015600f57600080fd5b506101058061001f6000396000f3fe6080604052348015600f57600080fd5b506004361060285760003560e01c8063e9d223a714602d575b600080fd5b606060048036036040811015604157600080fd5b8101908080359060200190929190803590602001909291905050506062565b005b7fa5ab81f7416be77d27eb1624da51af352b31826c234020eef95920879b527ccd338383604051808473ffffffffffffffffffffffffffffffffffffffff1673ffffffffffffffffffffffffffffffffffffffff168152602001838152602001828152602001935050505060405180910390a1505056fea165627a7a7230582050a7aa8175b2c96b0ddf3547c4c18bd442b07bb793f5db6012c704f8521e3f1e0029",
  "source": "pragma solidity ^0.5.0;\r\n\r\ncontract ProofOfLocation {\r\n   event ProofOfLocationLog(address adr, int256 lat, int256 lon)  ;   // declaring event  \r\n   function StoreProofOfLocation(int256 lat, int256 lon) public {\r\n      emit ProofOfLocationLog(msg.sender,lat,lon);// logging event\r\n   }\r\n}\r\n",
  "sourcePath": "C:/blockchain_test/location/truffle/contracts/ProofOfLocation.sol",
  "compiler": {
    "name": "solc",
    "version": "0.5.8+commit.23d335f2.Emscripten.clang"
  },
  "schemaVersion": "3.0.14",
  "updatedAt": "2019-09-03T09:39:31.238Z",
  "devdoc": {
    "methods": {}
  },
  "userdoc": {
    "methods": {}
  }
}